:020000040800F2
:1000000010FB002099660008290300082B03000854
:100010002F03000833030008370300080000000026
:100020000000000000000000000000003B0300088A
:100030003D030008000000003F03000841030008E2
:10004000B3660008B3660008B3660008B36600082C
:10005000B3660008B3660008B3660008B36600081C
:10006000B3660008B3660008B3660008B36600080C
:10007000B3660008B3660008B3660008B3660008FC
:10008000B3660008B3660008B3660008B3660008EC
:10009000B3660008B3660008B3660008AB940008B6
:1000A000B3660008B3660008B3660008B3660008CC
:1000B000639700089BA80008B3660008B3660008B1
:1000C000B3660008B3660008B3660008B3660008AC
:1000D000B36600080F660008B3660008B366000840
:1000E000B3660008B3660008B3660008B36600088C
:1000F000B3660008B3660008B3660008B36600087C
:10010000B3660008B3660008B3660008B36600086B
:10011000B3660008B3660008B3660008B36600085B
:10012000B3660008B3660008B3660008B36600084B
:10013000B3660008B3660008B3660008B36600083B
:10014000B3660008B3660008B3660008B36600082B
:10015000B3660008B3660008B3660008B36600081B
:10016000B3660008B3660008B3660008B36600080B
:10017000B3660008B3660008B3660008B3660008FB
:10018000B3660008B366000800F002F800F067F8F4
:100190000AA090E8000C82448344AAF10107DA45E2
:1001A00001D100F05CF8AFF2090EBAE80F0013F0CD
:1001B000010F18BFFB1A43F0010318474C800600DB
:1001C0006C8006000A444FF0000C10F8013B13F05D
:1001D000070408BF10F8014B1D1108BF10F8015BA0
:1001E000641E05D010F8016B641E01F8016BF9D193
:1001F00013F0080F1EBF10F8014BAD1C0C1B09D1EA
:100200006D1E58BF01F801CBFAD505E014F8016B5B
:1002100001F8016B6D1EF9D59142D6D370470000ED
:100220000023002400250026103A28BF78C1FBD8FF
:10023000520728BF30C148BF0B607047642931F0B6
:10024000C585782931F0FE85732932F03A80002087
:1002500070471FB532F0F7FD1FBD10B510BD32F06D
:1002600075F81146FFF7F5FF00F008F832F093F843
:1002700003B4FFF7F2FF03BC06F06AF94FF4A06085
:1002800006F02AFAA82006F01BF84FF4E13006F039
:100290006CF900F05FF900F0EEFD03F085FC05F06D
:1002A00037FE30F04BFC05E018A031F011FD0120C5
:1002B00006F084F8002030F0B7FE0028F4D1194988
:1002C000086880470DF0C0FE08F048FF08F096FF70
:1002D00030F0D8FC09F001FD09F011F808F0A6FF94
:1002E00009F07EFA09F020F905F08EFF532140F263
:1002F000E73005F0DFFD07E00A4841680020884745
:1003000020F020F809F0ADFAF6E70000313239327A
:10031000BCC4B4E6C6F7C9E8D6C3CAA7B0DC0D0AA8
:10032000000000001C000020704700BFFEE700BF77
:10033000FEE700BFFEE700BFFEE77047704770476B
:10034000704700000CB500200190009076480068CE
:1003500040F480307449086000BF7348006800F4BE
:10036000003000900198401C0190009818B9019845
:10037000B0F5A04FF1D16C48006800F4003010B126
:100380000120009001E0002000900098012846D153
:1003900065484030006840F0805063494031086053
:1003A0006248006840F44040604908605E48083098
:1003B00000685D49083108600846006840F4004064
:1003C00008600846006840F4A05008605848091FBB
:1003D0000860081F006840F08070091F086000BFB7
:1003E0005148006800F000700028F9D040F2057014
:1003F000504908604C480830006820F003004A4922
:10040000083108600846006840F00200086000BF3C
:1004100045480830006800F00C000828F8D10CBDF1
:1004200010B54548006840F47000434908603E48F4
:10043000006840F001003C49086000203A4908315A
:100440000860394800683D490840374908603C4821
:10045000091D0860081F006820F48020091F08603B
:10046000002031490C310860FFF76CFF4FF000604D
:1004700031498039086010BD70B500200022022388
:1004800000240221284D08352D6805F00C0020B10C
:10049000042806D0082834D107E02A4D2A4E3560BA
:1004A00033E02A4D284E35602FE01F4D2D1D2D685D
:1004B000C5F380541C4D2D1D2D6805F03F0154B12E
:1004C000224DB5FBF1F5184E361D3668C6F3881679
:1004D00005FB06F209E01B4DB5FBF1F5124E361D8A
:1004E0003668C6F3881605FB06F20F4D2D1D2D68E4
:1004F000C5F301456D1C6B00B2FBF3F5124E356080
:1005000003E0104D104E356000BF00BF064D0835AA
:100510002D68C5F303150E4E705D0B4D2D68C5405B
:10052000094E356070BD0000003802400070004088
:1005300008544007003C024088ED00E0FFFFF6FE53
:10054000103000240024F4000000002000127A0083
:10055000040000201CB50121202006F035FF4FF4D7
:10056000C060009001208DF8040000208DF8060086
:1005700003208DF8050001208DF807006946044826
:1005800006F0A0F94FF4C061014806F017FA1CBD4F
:100590000014024001B5BDF800000090BDF8000055
:1005A000FE49088008BD01B5BDF800000090BDF807
:1005B0000000FA49891C088008BD08B5F748801C6E
:1005C00000880090BDF8000008BDF44A10804FF08C
:1005D000D842A2F88010704710B504462046FFF7B5
:1005E000D9FF052005F086FEFFF7E7FF10BDEC48B8
:1005F0000089EA4908807047E849891C08807047EB
:1006000030B5014601F01F04C1F34513CA0AE502E3
:1006100005EB43151544A8B230BD00BF011EA0F183
:100620000102D0B2FAD1704710B502460C46DC4840
:10063000808841F66311884247D1D9488079A8B9AA
:10064000D7480088401E801A82B2D5494889FFF7F2
:10065000A1FF0020FFF7A7FF0020FFF7A4FF101263
:10066000FFF7A1FFD0B2FFF79EFF16E0CC49488903
:10067000FFF790FF1012FFF796FFD0B2FFF793FF3E
:10068000C7490988491EC1F30F20FFF78CFFC449F1
:100690000978491EC8B2FFF786FFC1498889FFF76C
:1006A00079FF2012FFF77FFFE0B2FFF77CFFBC4924
:1006B0004988491EC1F30F20FFF775FFB8498978B3
:1006C000491EC8B2FFF76FFF3AE0B548808845F28F
:1006D0001051884220D1B2494889FFF75BFF1012C0
:1006E000FFF761FFAE494989491C88B2FFF752FF05
:1006F000D0B2FFF758FFAA498889FFF74BFF2012B5
:10070000FFF751FFA6498989491C88B2FFF742FFCC
:10071000E0B2FFF748FF13E0A1494889FFF73AFF2D
:100720001012FFF740FFD0B2FFF73DFF9C498889C8
:10073000FFF730FF2012FFF736FFE0B2FFF733FF7D
:1007400010BD2DE9F04105460E4600240027A046C5
:1007500093480088A84203DD91484088B04202DCFB
:100760000020BDE8F08131462846FFF75DFF8C4848
:10077000808845F21051884204D14FF43850FFF779
:1007800009FF02E02E20FFF705FFFFF716FF0446E2
:100790008348808841F66311884201D12046E0E712
:1007A000FFF70BFF0446FFF708FF8046E7B24FF65E
:1007B000FF7000EA0727E012C002B91240EA4110B8
:1007C00040EAE820CDE700B57548808845F2105131
:1007D000884204D14FF42450FFF7DCFE02E02920C8
:1007E000FFF7D8FE00BD00B56D48808845F2105176
:1007F000884204D14FF42050FFF7CCFE02E02820BD
:10080000FFF7C8FE00BDF0B5054600240027644888
:100810008079012805D16248808841F663118842B9
:1008200008D15F488079F0B95D48808841F663114E
:10083000884218D1082D15D2DFE805F00406080A11
:100840000C0E101206250DE007250BE0042509E02B
:10085000052507E0012505E0002503E0032501E06B
:10086000022500BF00BF082D1CD2DFE805F00406FA
:10087000090C0F12151800BF14E044F0800411E0B9
:1008800044F040040EE044F0C0040BE044F02004C7
:1008900008E044F0600405E044F0A00402E044F005
:1008A000E00400BF00BF3E48808845F210518842F6
:1008B00002D14FF4585700E036273948808849F272
:1008C0004131884205D03648808847F28971884294
:1008D00001D144F0080421463846FFF776FE30483F
:1008E000808841F6631188421DD004F0200068B171
:1008F0002B4800882A494988884214DA2848068803
:10090000408827490880084646800CE02448008833
:1009100023494988884206DD2148068840882049C5
:100920000880084646801E48808845F2105188425B
:1009300057D11B494889FFF72DFE0020FFF733FEF2
:1009400017494989491C88B2FFF724FE0020FFF7A8
:100950002AFE13494989891C88B2FFF71BFE1049FA
:100960000988491EC1F30F20FFF71DFE0C49498974
:10097000C91C88B2FFF70EFE09490978491EC8B2A2
:10098000FFF711FE06498889FFF704FE0020FFF7F4
:100990000AFE03498989491C88B203E07E00006C85
:1009A00020030020FFF7F6FD0020FFF7FCFDFE49C5
:1009B0008989891C88B2FFF7EDFDFB494988491EEA
:1009C000C1F30F20FFF7EFFDF7498989C91C88B2F1
:1009D000FFF7E0FDF4498978491EC8B2FFF7E3FD4F
:1009E0002DE0F1494889FFF7D5FD0020FFF7DBFD39
:1009F0000020FFF7D8FDEC490988491EC1F30F20FC
:100A0000FFF7D1FDE8490978491EC8B2FFF7CBFDD1
:100A1000E5498889FFF7BEFD0020FFF7C4FD0020EF
:100A2000FFF7C1FDE0494988491EC1F30F20FFF7D8
:100A3000BAFDDD498978491EC8B2FFF7B4FDF0BDA3
:100A400030B504460D4629462046FFF7EDFDFFF779
:100A5000CEFDD6480088D649088030BD30B5044662
:100A60000D46D148808845F21051884220D1CE49A8
:100A70004889FFF78FFD2012FFF795FDCA49498984
:100A8000491C88B2FFF786FDE0B2FFF78CFDC6492E
:100A90008889FFF77FFD2812FFF785FDC249898904
:100AA000491C88B2FFF776FDE8B2FFF77CFD42E013
:100AB000BD48808841F66311884228D1BA488079C0
:100AC00020B9B9480088401E001B84B2B649488945
:100AD000FFF760FD2012FFF766FDE0B2FFF763FD50
:100AE0002012FFF760FDE0B2FFF75DFDAE49888997
:100AF000FFF750FD2812FFF756FDE8B2FFF753FD50
:100B00002812FFF750FDE8B2FFF74DFD13E0A649AC
:100B10004889FFF73FFD2012FFF745FDE0B2FFF7E0
:100B200042FDA1498889FFF735FD2812FFF73BFDFB
:100B3000E8B2FFF738FD9C4800899D49891E08806E
:100B40004FF0D840A0F8802030BD70B52DED048B5B
:100B50000446BE20FFF71EFD0520FFF724FD2046BA
:100B600031F0BAFD41EC190B9FED920B53EC102BB9
:100B700031F002FE41EC180B31F06AFD85B22846D7
:100B8000FFF711FD0120FFF70EFDFF20FFF70BFD22
:100B90000020FFF708FD0020FFF705FDBDEC048BEA
:100BA00070BD10B5044680488471002C45D1F020FA
:100BB0007D4908804FF4A07048800846808845F23F
:100BC0001051884210D14FF43050774908814FF4CA
:100BD000285048814FF42C5088814FF4F0700880E1
:100BE0004FF4487048801AE06F48808841F66311DE
:100BF00088420DD12C206C4908812B2048812A2065
:100C000088814FF4F07008804FF44870488006E007
:100C10002C20654908812A2048812B208881624840
:100C2000808845F2103188424CD14FF4A0705E4963
:100C300008804FF4F070488044E04FF4A0705A49A7
:100C40000880F02048800846808845F2105188428C
:100C500010D14FF43050544908814FF42850488146
:100C60004FF42C5088814FF4487008804FF4F07096
:100C700048801AE04C48808841F6631188420DD1C3
:100C80002C20494908812A2048812B2088814FF453
:100C9000487008804FF4F070488006E02C204249EC
:100CA00008812A2048812B2088813F48808845F28E
:100CB0001031884206D14FF4F0703B4908804FF460
:100CC000A07048800020FFF79EFD10BD2DE9F04187
:100CD00004460D461E46A018401E87B2A819401EA5
:100CE0001FFA80F83048808841F66311884231D17C
:100CF0002D48807901282DD02B480088801A001BB0
:100D000084B2A819401E86B227494889FFF742FCE1
:100D10002012FFF748FCE0B2FFF745FCA118491E7E
:100D2000C1F30F20FFF73FFCA118491EC8B2FFF71F
:100D30003AFC1D498889FFF72DFC2812FFF733FC88
:100D4000E8B2FFF730FC3012FFF72DFCF0B2FFF7EE
:100D50002AFC79E01448808845F21051884251D12C
:100D600011494889FFF716FC2012FFF71CFC0E49B9
:100D70004989491C88B2FFF70DFCE0B2FFF713FC6C
:100D800009494989891C88B2FFF704FC3812FFF72A
:100D90000AFC05494989C91C88B2FFF7FBFBF8B278
:100DA000FFF701FC004909E02003002014000020A7
:100DB0008000006C66666666666604408889FFF798
:100DC000E9FB2812FFF7EFFBFE498989491C88B22D
:100DD000FFF7E0FBE8B2FFF7E6FBFA498989891CD7
:100DE00088B2FFF7D7FB4FEA2820FFF7DCFBF54975
:100DF0008989C91C88B2FFF7CDFB08F0FF00FFF717
:100E0000D2FB21E0EF494889FFF7C4FB2012FFF72E
:100E1000CAFBE0B2FFF7C7FB3812FFF7C4FBF8B21A
:100E2000FFF7C1FBE7498889FFF7B4FB2812FFF7FA
:100E3000BAFBE8B2FFF7B7FB4FEA2820FFF7B3FB96
:100E400008F0FF00FFF7AFFBBDE8F08170B5044686
:100E50000026DC4805884088454300210846FFF706
:100E6000E3FBFFF7C4FB00BF02E0D7480480761C19
:100E7000AE42FAD370BD1CB5D448006840F078008B
:100E8000D24908600846006840F002000860CF4878
:100E90000830006840F00100CC49083108600120AA
:100EA000022100230246CDE90010C103C84805F025
:100EB000DFFA0120032100230222CDE900104CF2C9
:100EC0003371C44805F0D4FA012003210023022223
:100ED000CDE900104FF68071BF4805F0C9FA012036
:100EE000032100230222CDE900100103BB4805F0D5
:100EF000BFFA0120032100230222CDE900100103E3
:100F0000B74805F0B5FA0C220021B24805F090FA76
:100F10000C220121AF4805F08BFA0C220421AD48C8
:100F200005F086FA0C220521AA4805F081FA0C2268
:100F30000821A84805F07CFA0C220921A54805F0F3
:100F400077FA0C220A21A34805F072FA0C220E212E
:100F5000A04805F06DFA0C220F219E4805F068FAB2
:100F60000C2207219C4805F063FA0C2208219A48BC
:100F700005F05EFA0C220921974805F059FA0C2277
:100F80000A21954805F054FA0C220B21924805F0ED
:100F90004FFA0C221146904805F04AFA0C220D2116
:100FA0008D4805F045FA0C220E218B4805F040FAD9
:100FB0000C220F21884805F03BFA0C221146874885
:100FC00005F036FA0C221146854805F031FA00206A
:100FD0004FF020418861C861824908604FF020408D
:100FE000806940F480504FF0204188610846806954
:100FF00040F4804088610846806940F010008861B4
:101000000846C069C8610846C06940F00F00C86161
:101010000846C06940F47050C86172480068C1F861
:101020001C010846D0F81C0140F00900C1F81C0161
:101030000846D0F81C0140F40060C1F81C010846C5
:10104000806940F001008861322005F09BF9D320CF
:10105000FFF7A0FAFFF7B1FA5A498880FFF7ADFA17
:1010600058498880FFF7A9FA564988800846808841
:101070004FF6FF7101EA002052498880FFF79DFA80
:101080005049898808434F4988800846808849F23A
:10109000413188427DD00420FFF77CFAFFF78DFABA
:1010A00048498880FFF789FA46498880FFF785FA22
:1010B00044498880084680884FF6FF7101EA002085
:1010C00040498880FFF779FA3E49898808433D49BD
:1010D00088800846808848F25251884203D147F2FE
:1010E0008970384988803748808847F289718842FA
:1010F000D0D0D420FFF74EFAFFF75FFA314988804D
:10110000FFF75BFA2F498880FFF757FA2D4988804F
:10111000084680884FF6FF7101EA0020294988803F
:10112000FFF74BFA274989880843264988800846F3
:10113000808845F2103188427ED055214FF47040AE
:10114000FFF743FAAA214FF20100FFF73EFA5221BE
:101150004FF20200FFF739FA08214FF20300FFF7C0
:1011600034FA01214FF20400FFF72FFA4FF4454003
:10117000FFF710FAFFF721FA1249888008468088A5
:101180004FF6FF7101EA00200E4988804CF20150B1
:1011900000E051E0FFF7FEF9FFF70FFA09498988EF
:1011A000084308498880052005F0ECF80548808848
:1011B000B0F5004F03D145F2105002498880014834
:1011C000808811E0200300208000006C303802404D
:1011D00000040240000C02400010024000140240D3
:1011E000001802401C0100A045F21051884223D093
:1011F000A120FFF7CFF9FFF7E0F9FE498880FFF75C
:10120000DCF9FC498880084680884FF6FF7101EAC6
:101210000020F8498880FFF7D0F9F649898808430B
:10122000F44988800846808845F26171884203D17C
:1012300041F66310EF498880EE488188EEA030F0D7
:1012400047FDEC48808849F2413188427ED1CF2069
:10125000FFF7A0F90020FFF7A6F9C120FFF7A3F9D7
:101260003020FFF7A0F9ED20FFF794F96420FFF795
:101270009AF90320FFF797F91220FFF794F98120DC
:10128000FFF791F9E820FFF785F98520FFF78BF943
:101290001020FFF788F97A20FFF785F9CB20FFF7B8
:1012A00079F93920FFF77FF92C20FFF77CF900202E
:1012B000FFF779F93420FFF776F90220FFF773F989
:1012C000F720FFF767F92020FFF76DF9EA20FFF715
:1012D00061F90020FFF767F90020FFF764F9C020EB
:1012E000FFF758F91B20FFF75EF9C120FFF752F90D
:1012F0000120FFF758F9C520FFF74CF93020FFF720
:1013000052F93020FFF74FF9C720FFF743F9B72014
:10131000FFF749F93620FFF73DF94820FFF743F979
:101320003A20FFF737F95520FFF73DF9B120FFF7D5
:1013300031F90020FFF737F91A20FFF734F9B6200A
:10134000FFF728F90A20FFF72EF900E097E0A22026
:10135000FFF729F9F220FFF71DF90020FFF723F925
:101360002620FFF717F90120FFF71DF9E020FFF70E
:1013700011F90F20FFF717F92A20FFF714F9282099
:10138000FFF711F90820FFF70EF90E20FFF70BF910
:101390000820FFF708F95420FFF705F9A920FFF707
:1013A00002F94320FFF7FFF80A20FFF7FCF80F20AF
:1013B000FFF7F9F80020FFF7F6F80020FFF7F3F841
:1013C0000020FFF7F0F80020FFF7EDF8E120FFF72D
:1013D000E1F80020FFF7E7F81520FFF7E4F8172001
:1013E000FFF7E1F80720FFF7DEF81120FFF7DBF841
:1013F0000620FFF7D8F82B20FFF7D5F85620FFF787
:10140000D2F83C20FFF7CFF80520FFF7CCF81020EA
:10141000FFF7C9F80F20FFF7C6F83F20FFF7C3F822
:101420003F20FFF7C0F80F20FFF7BDF82B20FFF794
:10143000B1F80020FFF7B7F80020FFF7B4F801205B
:10144000FFF7B1F83F20FFF7AEF82A20FFF7A2F828
:101450000020FFF7A8F80020FFF7A5F80020FFF70D
:10146000A2F8EF20FFF79FF81120FFF793F87820FC
:1014700004F088FF2920FFF78DF802F0B1B85D482D
:10148000808847F2897188427ED11120FFF782F867
:10149000782004F077FF3620FFF77CF80020FFF774
:1014A00082F83A20FFF776F80520FFF77CF8B220A3
:1014B000FFF770F80C20FFF776F80C20FFF773F8B1
:1014C0000020FFF770F83320FFF76DF83320FFF7A7
:1014D0006AF8B720FFF75EF83520FFF764F8BB2005
:1014E000FFF758F83220FFF75EF8C020FFF752F8F8
:1014F0000C20FFF758F8C220FFF74CF80120FFF747
:1015000052F8C320FFF746F81020FFF74CF8C4202C
:10151000FFF740F82020FFF746F8C620FFF73AF81B
:101520000F20FFF740F8D020FFF734F8A420FFF792
:101530003AF8A120FFF737F8E020FFF72BF8D0208A
:10154000FFF731F80020FFF72EF80220FFF72BF805
:101550000720FFF728F80A20FFF725F82820FFF7D3
:1015600022F83220FFF71FF84420FFF71CF8422032
:10157000FFF719F80620FFF716F80E20FFF713F80B
:101580001220FFF710F800E05FE01420FFF70BF8DF
:101590001720FFF708F8E120FEF7FCFFD020FFF747
:1015A00002F80020FEF7FFFF0220FEF7FCFF0720F5
:1015B000FEF7F9FF0A20FEF7F6FF2820FEF7F3FFFB
:1015C0003120FEF7F0FF5420FEF7EDFF4720FEF735
:1015D000EAFF0E20FEF7E7FF1C20FEF7E4FF1720CE
:1015E000FEF7E1FF1B20FEF7DEFF1E20FEF7DBFF0C
:1015F0002A2009E020030020204C43442049443A9B
:1016000025780D0A00000000FEF7C4FF0020FEF759
:10161000CAFF0020FEF7C7FF0020FEF7C4FFEF203F
:10162000FEF7C1FF2B20FEF7B5FF0020FEF7BBFF42
:101630000020FEF7B8FF0120FEF7B5FF3F20FEF7C0
:10164000B2FF2920FEF7A6FF17E7FE48808845F283
:101650001031884240F07C87ED20FEF79BFF01208F
:10166000FEF7A1FFFE20FEF79EFFEE20FEF792FFA1
:10167000DE20FEF798FF2120FEF795FFF120FEF710
:1016800089FF0120FEF78FFFDF20FEF783FF102088
:10169000FEF789FFC420FEF77DFF8F20FEF783FF52
:1016A000C620FEF777FF0020FEF77DFFE220FEF761
:1016B0007AFFE220FEF777FFE220FEF774FFBF20FB
:1016C000FEF768FFAA20FEF76EFFB020FEF762FF6C
:1016D0000D20FEF768FF0020FEF765FF0D20FEF7E6
:1016E00062FF0020FEF75FFF1120FEF75CFF002085
:1016F000FEF759FF1920FEF756FF0020FEF753FFB3
:101700002120FEF750FF0020FEF74DFF2D20FEF7B1
:101710004AFF0020FEF747FF3D20FEF744FF002070
:10172000FEF741FF5D20FEF73EFF0020FEF73BFF86
:101730005D20FEF738FF0020FEF735FFB120FEF7F1
:1017400029FF8020FEF72FFF0020FEF72CFF8B20C3
:10175000FEF729FF0020FEF726FF9620FEF723FF65
:101760000020FEF720FFB220FEF714FF0020FEF756
:101770001AFF0020FEF717FF0220FEF714FF0020DB
:10178000FEF711FF0320FEF70EFF0020FEF70BFF10
:10179000B320FEF7FFFE0020FEF705FF0020FEF756
:1017A00002FF0020FEF7FFFE0020FEF7FCFE0020F7
:1017B000FEF7F9FE0020FEF7F6FE0020FEF7F3FE2E
:1017C0000020FEF7F0FE0020FEF7EDFE0020FEF701
:1017D000EAFE0020FEF7E7FE0020FEF7E4FE002010
:1017E000FEF7E1FE0020FEF7DEFE0020FEF7DBFE46
:1017F0000020FEF7D8FE0020FEF7D5FE0020FEF701
:10180000D2FE0020FEF7CFFE0020FEF7CCFE002027
:10181000FEF7C9FE0020FEF7C6FE0020FEF7C3FE5D
:101820000020FEF7C0FEB420FEF7B4FE8B20FEF7CA
:10183000BAFE0020FEF7B7FE9620FEF7B4FE0020A9
:10184000FEF7B1FEA120FEF7AEFE0020FEF7ABFED4
:10185000B520FEF79FFE0220FEF7A5FE0020FEF752
:10186000A2FE0320FEF79FFE0020FEF79CFE042050
:10187000FEF799FE0020FEF796FEB620FEF78AFEE0
:101880000020FEF790FE0020FEF78DFEB720FEF749
:1018900081FE0020FEF787FE0020FEF784FE3F2039
:1018A000FEF781FE0020FEF77EFE5E20FEF77BFE47
:1018B0000020FEF778FE6420FEF775FE0020FEF79C
:1018C00072FE8C20FEF76FFE0020FEF76CFEAC204F
:1018D000FEF769FE0020FEF766FEDC20FEF763FEE1
:1018E0000020FEF760FE7020FEF75DFE0020FEF790
:1018F0005AFE9020FEF757FE0020FEF754FEEB2024
:10190000FEF751FE0020FEF74EFEDC20FEF74BFEF8
:101910000020FEF748FEB820FEF73CFE0020FEF750
:1019200042FE0020FEF73FFE0020FEF73CFE0020B6
:10193000FEF739FE0020FEF736FE0020FEF733FEEC
:101940000020FEF730FE0020FEF72DFEBA20FEF745
:1019500021FE2420FEF727FE0020FEF724FE0020B3
:10196000FEF721FE0020FEF71EFEC120FEF712FE4C
:101970002020FEF718FE0020FEF715FE5420FEF78B
:1019800012FE0020FEF70FFEFF20FEF70CFE0020E7
:10199000FEF709FEC220FEF7FDFD0A20FEF703FE5A
:1019A0000020FEF700FE0420FEF7FDFD0020FEF7FC
:1019B000FAFDC320FEF7EEFD3C20FEF7F4FD00200B
:1019C000FEF7F1FD3A20FEF7EEFD0020FEF7EBFDFD
:1019D0003920FEF7E8FD0020FEF7E5FD3720FEF791
:1019E000E2FD0020FEF7DFFD3C20FEF7DCFD0020DD
:1019F000FEF7D9FD3620FEF7D6FD0020FEF7D3FD19
:101A00003220FEF7D0FD0020FEF7CDFD2F20FEF79F
:101A1000CAFD0020FEF7C7FD2C20FEF7C4FD002004
:101A2000FEF7C1FD2920FEF7BEFD0020FEF7BBFD3D
:101A30002620FEF7B8FD0020FEF7B5FD2420FEF7B6
:101A4000B2FD01E0200300200020FEF7ACFD2420C1
:101A5000FEF7A9FD0020FEF7A6FD2320FEF7A3FD5B
:101A60000020FEF7A0FD3C20FEF79DFD0020FEF7C4
:101A70009AFD3620FEF797FD0020FEF794FD3220F8
:101A8000FEF791FD0020FEF78EFD2F20FEF78BFD67
:101A90000020FEF788FD2C20FEF785FD0020FEF7D4
:101AA00082FD2920FEF77FFD0020FEF77CFD262029
:101AB000FEF779FD0020FEF776FD2420FEF773FD8A
:101AC0000020FEF770FD2420FEF76DFD0020FEF7DC
:101AD0006AFD2320FEF767FD0020FEF764FDC420A9
:101AE000FEF758FD6220FEF75EFD0020FEF75BFD6D
:101AF0000520FEF758FD0020FEF755FD8420FEF777
:101B000052FD0020FEF74FFDF020FEF74CFD0020B7
:101B1000FEF749FD1820FEF746FD0020FEF743FDC5
:101B2000A420FEF740FD0020FEF73DFD1820FEF743
:101B30003AFD0020FEF737FD5020FEF734FD00206F
:101B4000FEF731FD0C20FEF72EFD0020FEF72BFDE9
:101B50001720FEF728FD0020FEF725FD9520FEF753
:101B600022FD0020FEF71FFDF320FEF71CFD0020E4
:101B7000FEF719FDE620FEF716FD0020FEF713FD27
:101B8000C520FEF707FD3220FEF70DFD0020FEF711
:101B90000AFD4420FEF707FD0020FEF704FD652046
:101BA000FEF701FD0020FEF7FEFC7620FEF7FBFCB1
:101BB0000020FEF7F8FC8820FEF7F5FC0020FEF779
:101BC000F2FCC620FEF7E6FC2020FEF7ECFC00202D
:101BD000FEF7E9FC1720FEF7E6FC0020FEF7E3FC29
:101BE0000120FEF7E0FC0020FEF7DDFCC720FEF739
:101BF000D1FC0020FEF7D7FC0020FEF7D4FC00202B
:101C0000FEF7D1FC0020FEF7CEFCC820FEF7C2FC98
:101C10000020FEF7C8FC0020FEF7C5FC0020FEF700
:101C2000C2FC0020FEF7BFFCC920FEF7B3FC002079
:101C3000FEF7B9FC0020FEF7B6FC0020FEF7B3FC6F
:101C40000020FEF7B0FC0020FEF7ADFC0020FEF700
:101C5000AAFC0020FEF7A7FC0020FEF7A4FC002051
:101C6000FEF7A1FC0020FEF79EFC0020FEF79BFC87
:101C70000020FEF798FC0020FEF795FC0020FEF700
:101C800092FC0020FEF78FFC0020FEF78CFCE02089
:101C9000FEF780FC1620FEF786FC0020FEF783FC92
:101CA0001C20FEF780FC0020FEF77DFC2120FEF7C3
:101CB0007AFC0020FEF777FC3620FEF774FC00204B
:101CC000FEF771FC4620FEF76EFC0020FEF76BFC71
:101CD0005220FEF768FC0020FEF765FC6420FEF74A
:101CE00062FC0020FEF75FFC7A20FEF75CFC00201F
:101CF000FEF759FC8B20FEF756FC0020FEF753FC44
:101D00009920FEF750FC0020FEF74DFCA820FEF7BE
:101D10004AFC0020FEF747FCB920FEF744FC0020F7
:101D2000FEF741FCC420FEF73EFC0020FEF73BFC22
:101D3000CA20FEF738FC0020FEF735FCD220FEF763
:101D400032FC0020FEF72FFCD920FEF72CFC0020EF
:101D5000FEF729FCE020FEF726FC0020FEF723FC1E
:101D6000F320FEF720FC0020FEF71DFCE120FEF72B
:101D700011FC1620FEF717FC0020FEF714FC1C20B7
:101D8000FEF711FC0020FEF70EFC2220FEF70BFCF4
:101D90000020FEF708FC3620FEF705FC0020FEF7C9
:101DA00002FC4520FEF7FFFB0020FEF7FCFB522063
:101DB000FEF7F9FB0020FEF7F6FB6420FEF7F3FBCD
:101DC0000020FEF7F0FB7A20FEF7EDFB0020FEF787
:101DD000EAFB8B20FEF7E7FB0020FEF7E4FB9920EF
:101DE000FEF7E1FB0020FEF7DEFBA820FEF7DBFBA1
:101DF0000020FEF7D8FBB920FEF7D5FB0020FEF748
:101E0000D2FBC420FEF7CFFB0020FEF7CCFBCA209C
:101E1000FEF7C9FB0020FEF7C6FBD220FEF7C3FB8E
:101E20000020FEF7C0FBD820FEF7BDFB0020FEF728
:101E3000BAFBE020FEF7B7FB0020FEF7B4FBF3206F
:101E4000FEF7B1FB0020FEF7AEFBE220FEF7A2FB9F
:101E50000520FEF7A8FB0020FEF7A5FB0B20FEF7F0
:101E6000A2FB0020FEF79FFB1B20FEF79CFB00203F
:101E7000FEF799FB3420FEF796FB0020FEF793FB5C
:101E80004420FEF790FB0020FEF78DFB4F20FEF76D
:101E90008AFB0020FEF787FB6120FEF784FB002011
:101EA000FEF781FB7920FEF77EFB0020FEF77BFB2F
:101EB0008820FEF778FB0020FEF775FB9720FEF7E1
:101EC00072FB0020FEF76FFBA620FEF76CFB0020E4
:101ED000FEF769FBB720FEF766FB0020FEF763FB09
:101EE000C220FEF760FB0020FEF75DFBC720FEF777
:101EF0005AFB0020FEF757FBD120FEF754FB0020D1
:101F0000FEF751FBD620FEF74EFB0020FEF74BFB01
:101F1000DD20FEF748FB0020FEF745FBF320FEF72F
:101F200042FB0020FEF73FFBE320FEF733FB0520DA
:101F3000FEF739FB0020FEF736FB0A20FEF733FBE5
:101F40000020FEF730FB1C20FEF72DFB0020FEF7E3
:101F50002AFB3320FEF727FB0020FEF724FB44205A
:101F6000FEF721FB0020FEF71EFB5020FEF71BFBB7
:101F70000020FEF718FB6220FEF715FB0020FEF79D
:101F800012FB7820FEF70FFB0020FEF70CFB8820E9
:101F9000FEF709FB0020FEF706FB9720FEF703FB88
:101FA0000020FEF700FBA620FEF7FDFA0020FEF75A
:101FB000FAFAB720FEF7F7FA0020FEF7F4FAC2208B
:101FC000FEF7F1FA0020FEF7EEFAC720FEF7EBFA73
:101FD0000020FEF7E8FAD120FEF7E5FA0020FEF730
:101FE000E2FAD520FEF7DFFA0020FEF7DCFADD206A
:101FF000FEF7D9FA0020FEF7D6FAF320FEF7D3FA5F
:102000000020FEF7D0FAE420FEF7C4FA0120FEF724
:10201000CAFA0020FEF7C7FA0120FEF7C4FA002032
:10202000FEF7C1FA0220FEF7BEFA0020FEF7BBFA67
:102030002A20FEF7B8FA0020FEF7B5FA3C20FEF79A
:10204000B2FA0020FEF7AFFA4B20FEF7ACFA002000
:10205000FEF7A9FA5D20FEF7A6FA0020FEF7A3FA24
:102060007420FEF7A0FA0020FEF79DFA8420FEF708
:102070009AFA0020FEF797FA9320FEF794FA0020D0
:10208000FEF791FAA220FEF78EFA0020FEF78BFAF7
:10209000B320FEF788FA0020FEF785FABE20FEF78F
:1020A00082FA0020FEF77FFAC420FEF77CFA0020B7
:1020B000FEF779FACD20FEF776FA0020FEF773FAE4
:1020C000D320FEF770FA0020FEF76DFADD20FEF750
:1020D0006AFA0020FEF767FAF320FEF764FA0020A0
:1020E000FEF761FAE520FEF755FA0020FEF75BFAED
:1020F0000020FEF758FA0020FEF755FA0020FEF700
:1021000052FA0220FEF74FFA0020FEF74CFA29207F
:10211000FEF749FA0020FEF746FA3C20FEF743FAA4
:102120000020FEF740FA4B20FEF73DFA0020FEF7B4
:102130003AFA5D20FEF737FA0020FEF734FA7420F1
:10214000FEF731FA0020FEF72EFA8420FEF72BFA74
:102150000020FEF728FA9320FEF725FA0020FEF76C
:1021600022FAA220FEF71FFA0020FEF71CFAB32085
:10217000FEF719FA0020FEF716FABE20FEF713FA52
:102180000020FEF710FAC420FEF70DFA0020FEF73B
:102190000AFACD20FEF707FA0020FEF704FAD32052
:1021A000FEF701FA0020FEF7FEF9DC20FEF7FBF94E
:1021B0000020FEF7F8F9F320FEF7F5F90020FEF70E
:1021C000F2F9E620FEF7E6F91120FEF7ECF900201F
:1021D000FEF7E9F93420FEF7E6F90020FEF7E3F90F
:1021E0005620FEF7E0F90020FEF7DDF97620FEF735
:1021F000DAF90020FEF7D7F97720FEF7D4F90020AE
:10220000FEF7D1F96620FEF7CEF90020FEF7CBF9F4
:102210008820FEF7C8F90020FEF7C5F99920FEF7DF
:10222000C2F90020FEF7BFF9BB20FEF7BCF9002081
:10223000FEF7B9F99920FEF7B6F90020FEF7B3F9D9
:102240006620FEF7B0F90020FEF7ADF95520FEF745
:10225000AAF90020FEF7A7F95520FEF7A4F90020FF
:10226000FEF7A1F94520FEF79EF90020FEF79BF945
:102270004320FEF798F90020FEF795F94420FEF779
:1022800092F90020FEF78FF9E720FEF783F932205C
:10229000FEF789F90020FEF786F95520FEF783F94D
:1022A0000020FEF780F97620FEF77DF90020FEF78A
:1022B0007AF96620FEF777F90020FEF774F96720B7
:1022C000FEF771F90020FEF76EF96720FEF76BF953
:1022D0000020FEF768F98720FEF765F90020FEF779
:1022E00062F99920FEF75FF90020FEF75CF9BB2048
:1022F000FEF759F90020FEF756F99920FEF753F939
:102300000020FEF750F97720FEF74DF90020FEF788
:102310004AF94420FEF747F90020FEF744F9562019
:10232000FEF741F90020FEF73EF92320FEF73BF9C6
:102330000020FEF738F93320FEF735F90020FEF7CC
:1023400032F94520FEF72FF90020FEF72CF9E8209E
:10235000FEF720F90020FEF726F90020FEF723F90A
:102360009920FEF720F90020FEF71DF98720FEF7DF
:102370001AF90020FEF717F98820FEF714F900205B
:10238000FEF711F97720FEF70EF90020FEF70BF9A2
:102390006620FEF708F90020FEF705F98820FEF711
:1023A00002F90020FEF7FFF8AA20FEF7FCF8002053
:1023B000FEF7F9F8BB20FEF7F6F80020FEF7F3F879
:1023C0009920FEF7F0F80020FEF7EDF86620FEF702
:1023D000EAF80020FEF7E7F85520FEF7E4F80020C1
:1023E000FEF7E1F85520FEF7DEF80020FEF7DBF8F7
:1023F0004420FEF7D8F80020FEF7D5F84420FEF779
:10240000D2F80020FEF7CFF85520FEF7CCF80020D8
:10241000FEF7C9F8E920FEF7BDF8AA20FEF7C3F8D9
:102420000020FEF7C0F80020FEF7BDF80020FEF700
:10243000BAF80020FEF7AEF8AA20FEF7B4F8CF20D5
:10244000FEF7A8F80020FEF7AEF80020FEF7ABF884
:102450000020FEF7A8F80020FEF7A5F80020FEF700
:10246000A2F80020FEF79FF80020FEF79CF800205D
:10247000FEF799F80020FEF796F80020FEF793F893
:102480000020FEF790F80020FEF78DF80020FEF700
:102490008AF80020FEF787F80020FEF784F8002075
:1024A000FEF781F80020FEF77EF8F020FEF772F8C4
:1024B0000020FEF778F85020FEF775F80020FEF7B0
:1024C00072F80020FEF76FF80020FEF76CF8F3209A
:1024D000FEF760F80020FEF766F8F920FEF75AF8DC
:1024E0000620FEF760F81020FEF75DF82920FEF7C1
:1024F0005AF80020FEF757F83A20FEF74BF855201F
:10250000FEF751F81120FEF745F8642003F03AFF7A
:102510002920FEF73FF83520FEF73CF80020FEF7B3
:1025200042F85120FEF736F8FF20FEF73CF8532022
:10253000FEF730F82C20FEF736F85520FEF72AF883
:102540008220FEF730F82C20FEF724F801F048B87E
:10255000FE48808845F2105188427DD155214FF4C4
:102560007040FEF732F8AA214FF20100FEF72DF875
:1025700052214FF20200FEF728F808214FF2030023
:10258000FEF723F801214FF20400FEF71EF80D219B
:102590004FF43040FEF719F80D214BF20100FEF721
:1025A00014F80D214BF20200FEF70FF834214FF41E
:1025B0003640FEF70AF834214BF20160FEF705F8C9
:1025C00034214BF20260FEF700F80D214FF4314048
:1025D000FDF7FBFF0D214BF20110FDF7F6FF0D217A
:1025E0004BF20210FDF7F1FF34214FF43740FDF7B5
:1025F000ECFF34214BF20170FDF7E7FF34214BF281
:102600000270FDF7E2FF00214FF43240FDF7DDFFDD
:1026100000214BF20120FDF7D8FF00214BF20220F0
:10262000FDF7D3FF24214FF43840FDF7CEFF2421DE
:102630004BF60100FDF7C9FF24214BF60200FDF720
:10264000C4FF01214FF43F40FDF7BFFF0F214FF4BE
:102650003340FDF7BAFF00E0FDE30F214BF20130FC
:10266000FDF7B3FF0F214BF20230FDF7AEFF34212F
:102670004FF43940FDF7A9FF34214BF60110FDF767
:10268000A4FF34214BF60210FDF79FFF08214FF401
:102690003540FDF79AFF08214BF20150FDF795FFF9
:1026A00008214BF20250FDF790FF03214FF4424006
:1026B000FDF78BFF24214FF43A40FDF786FF2421DC
:1026C0004BF60120FDF781FF24214BF60220FDF798
:1026D0007CFF00214FF43C40FDF777FF78214BF65B
:1026E0000140FDF772FF00214BF60240FDF76DFF40
:1026F00000214FF43D40FDF768FF78214BF6015073
:10270000FDF763FF00214BF60250FDF75EFF00214D
:102710004FF43E40FDF759FF64214BF60160FDF791
:1027200054FF00214FF45140FDF74FFF33214DF28C
:102730000110FDF74AFF00214DF20210FDF745FFA1
:1027400034214DF20310FDF740FF00214DF204103B
:10275000FDF73BFF3A214DF20510FDF736FF002152
:102760004DF20610FDF731FF4A214DF20710FDF73B
:102770002CFF00214DF20810FDF727FF5C214DF2E0
:102780000910FDF722FF00214DF20A10FDF71DFF91
:1027900081214DF20B10FDF718FF00214DF20C10B6
:1027A000FDF713FFA6214DF20D10FDF70EFF0021DE
:1027B0004DF20E10FDF709FFE5214DF20F10FDF768
:1027C00004FF01214DF21010FDF7FFFE13214DF221
:1027D0001110FDF7FAFE01214DF21210FDF7F5FE82
:1027E00054214DF21310FDF7F0FE01214DF21410AB
:1027F000FDF7EBFE82214DF21510FDF7E6FE0121FB
:102800004DF21610FDF7E1FECA214DF21710FDF74B
:10281000DCFE02214DF21810FDF7D7FE00214DF22B
:102820001910FDF7D2FE02214DF21A10FDF7CDFE70
:1028300001214DF21B10FDF7C8FE02214DF21C10C4
:10284000FDF7C3FE34214DF21D10FDF7BEFE02213F
:102850004DF21E10FDF7B9FE67214DF21F10FDF776
:10286000B4FE02214DF22010FDF7AFFE84214DF29F
:102870002110FDF7AAFE02214DF22210FDF7A5FE60
:10288000A4214DF22310FDF7A0FE02214DF22410E9
:10289000FDF79BFEB7214DF22510FDF796FE0221B4
:1028A0004DF22610FDF791FECF214DF22710FDF7D6
:1028B0008CFE02214DF22810FDF787FEDE214DF23D
:1028C0002910FDF782FE02214DF22A10FDF77DFE50
:1028D000F2214DF22B10FDF778FE02214DF22C1063
:1028E000FDF773FEFE214DF22D10FDF76EFE032164
:1028F0004DF22E10FDF769FE10214DF22F10FDF75D
:1029000064FE03214DF23010FDF75FFE33214DF2DE
:102910003110FDF75AFE03214DF23210FDF755FE3E
:102920006D214DF23310FDF750FE00214FF452405F
:10293000FDF74BFE33214DF20120FDF746FE00214D
:102940004DF20220FDF741FE342101E0200300207A
:102950004DF20320FDF739FE00214DF20420FDF772
:1029600034FE3A214DF20520FDF72FFE00214DF2F5
:102970000620FDF72AFE4A214DF20720FDF725FE2D
:1029800000214DF20820FDF720FE5C214DF20920C8
:10299000FDF71BFE00214DF20A20FDF716FE8121F6
:1029A0004DF20B20FDF711FE00214DF20C20FDF73A
:1029B0000CFEA6214DF20D20FDF707FE00214DF281
:1029C0000E20FDF702FEE5214DF20F20FDF7FDFD83
:1029D00001214DF21020FDF7F8FD13214DF21120D9
:1029E000FDF7F3FD01214DF21220FDF7EEFD54211C
:1029F0004DF21320FDF7E9FD01214DF21420FDF702
:102A0000E4FD82214DF21520FDF7DFFD01214DF29D
:102A10001620FDF7DAFDCA214DF21720FDF7D5FD8E
:102A200002214DF21820FDF7D0FD00214DF21920B2
:102A3000FDF7CBFD02214DF21A20FDF7C6FD012165
:102A40004DF21B20FDF7C1FD02214DF21C20FDF7C8
:102A5000BCFD34214DF21D20FDF7B7FD02214DF2E2
:102A60001E20FDF7B2FD67214DF21F20FDF7ADFDE1
:102A700002214DF22020FDF7A8FD84214DF22120F6
:102A8000FDF7A3FD02214DF22220FDF79EFDA421BA
:102A90004DF22320FDF799FD02214DF22420FDF790
:102AA00094FDB7214DF22520FDF78FFD02214DF257
:102AB0002620FDF78AFDCF214DF22720FDF785FD69
:102AC00002214DF22820FDF780FDDE214DF2292064
:102AD000FDF77BFD02214DF22A20FDF776FDF22164
:102AE0004DF22B20FDF771FD02214DF22C20FDF758
:102AF0006CFDFE214DF22D20FDF767FD03214DF207
:102B00002E20FDF762FD10214DF22F20FDF75DFD17
:102B100003214DF23020FDF758FD33214DF23120D5
:102B2000FDF753FD03214DF23220FDF74EFD6D21DF
:102B30004DF23320FDF749FD00214FF45340FDF7DE
:102B400044FD33214DF20130FDF73FFD00214DF2F0
:102B50000230FDF73AFD34214DF20330FDF735FD2B
:102B600000214DF20430FDF730FD3A214DF20530E1
:102B7000FDF72BFD00214DF20630FDF726FD4A2121
:102B80004DF20730FDF721FD00214DF20830FDF731
:102B90001CFD5C214DF20930FDF717FD00214DF2BF
:102BA0000A30FDF712FD81214DF20B30FDF70DFDCE
:102BB00000214DF20C30FDF708FDA6214DF20D303D
:102BC000FDF703FD00214DF20E30FDF7FEFCE5217F
:102BD0004DF20F30FDF7F9FC01214DF21030FDF7F9
:102BE000F4FC13214DF21130FDF7EFFC01214DF201
:102BF0001230FDF7EAFC54214DF21330FDF7E5FCED
:102C000001214DF21430FDF7E0FC82214DF2153028
:102C1000FDF7DBFC01214DF21630FDF7D6FCCA2191
:102C20004DF21730FDF7D1FC02214DF21830FDF7BF
:102C3000CCFC00214DF21930FDF7C7FC02214DF20A
:102C40001A30FDF7C2FC01214DF21B30FDF7BDFC2F
:102C500002214DF21C30FDF7B8FC34214DF21D303D
:102C6000FDF7B3FC02214DF21E30FDF7AEFC6721EB
:102C70004DF21F30FDF7A9FC02214DF22030FDF787
:102C8000A4FC84214DF22130FDF79FFC02214DF27E
:102C90002230FDF79AFCA4214DF22330FDF795FC7C
:102CA00002214DF22430FDF790FCB7214DF2253082
:102CB000FDF78BFC02214DF22630FDF786FCCF217B
:102CC0004DF22730FDF781FC02214DF22830FDF74F
:102CD0007CFCDE214DF22930FDF777FC02214DF21C
:102CE0002A30FDF772FCF2214DF22B30FDF76DFC1E
:102CF00002214DF22C30FDF768FCFE214DF22D3003
:102D0000FDF763FC03214DF22E30FDF75EFC102130
:102D10004DF22F30FDF759FC03214DF23030FDF715
:102D200054FC33214DF23130FDF74FFC03214DF2BD
:102D30003230FDF74AFC6D214DF23330FDF745FC92
:102D400000214FF45440FDF740FC33214DF2014087
:102D5000FDF73BFC00214DF20240FDF736FC34212B
:102D60004DF20340FDF731FC00214DF20440FDF728
:102D70002CFC3A214DF20540FDF727FC00214DF2D5
:102D80000640FDF722FC4A214DF20740FDF71DFCED
:102D900000214DF20840FDF718FC5C214DF209407E
:102DA000FDF713FC00214DF20A40FDF70EFC8121D6
:102DB0004DF20B40FDF709FC00214DF20C40FDF7F0
:102DC00004FCA6214DF20D40FDF7FFFB00214DF262
:102DD0000E40FDF7FAFBE5214DF20F40FDF7F5FB44
:102DE00001214DF21040FDF7F0FB13214DF211408F
:102DF000FDF7EBFB01214DF21240FDF7E6FB5421FC
:102E00004DF21340FDF7E1FB01214DF21440FDF7B7
:102E1000DCFB82214DF21540FDF7D7FB01214DF27D
:102E20001640FDF7D2FBCA214DF21740FDF7CDFB4E
:102E300002214DF21840FDF7C8FB00214DF2194068
:102E4000FDF7C3FB02214DF21A40FDF7BEFB012145
:102E50004DF21B4000E005E3FDF7B7FB02214DF208
:102E60001C40FDF7B2FB34214DF21D40FDF7ADFBD8
:102E700002214DF21E40FDF7A8FB67214DF21F40D5
:102E8000FDF7A3FB02214DF22040FDF79EFB8421BC
:102E90004DF22140FDF799FB02214DF22240FDF752
:102EA00094FBA4214DF22340FDF78FFB02214DF24C
:102EB0002440FDF78AFBB7214DF22540FDF785FB45
:102EC00002214DF22640FDF780FBCF214DF2274035
:102ED000FDF77BFB02214DF22840FDF776FBDE215A
:102EE0004DF22940FDF771FB02214DF22A40FDF71A
:102EF0006CFBF2214DF22B40FDF767FB02214DF2F6
:102F00002C40FDF762FBFE214DF22D40FDF75DFBED
:102F100003214DF22E40FDF758FB10214DF22F40BA
:102F2000FDF753FB03214DF23040FDF74EFB3321FB
:102F30004DF23140FDF749FB03214DF23240FDF7E0
:102F400044FB6D214DF23340FDF73FFB00214FF470
:102F50005540FDF73AFB33214DF20150FDF735FBAB
:102F600000214DF20250FDF730FB34214DF20350A9
:102F7000FDF72BFB00214DF20450FDF726FB3A2113
:102F80004DF20550FDF721FB00214DF20650FDF7F3
:102F90001CFB4A214DF20750FDF717FB00214DF2B3
:102FA0000850FDF712FB5C214DF20950FDF70DFBB7
:102FB00000214DF20A50FDF708FB81214DF20B5024
:102FC000FDF703FB00214DF20C50FDF7FEFAA621A0
:102FD0004DF20D50FDF7F9FA00214DF20E50FDF7BC
:102FE000F4FAE5214DF20F50FDF7EFFA01214DF211
:102FF0001050FDF7EAFA13214DF21150FDF7E5FAF2
:1030000001214DF21250FDF7E0FA54214DF2135018
:10301000FDF7DBFA01214DF21450FDF7D6FA8221BB
:103020004DF21550FDF7D1FA01214DF21650FDF782
:10303000CCFACA214DF21750FDF7C7FA02214DF222
:103040001850FDF7C2FA00214DF21950FDF7BDFAF4
:1030500002214DF21A50FDF7B8FA01214DF21B5032
:10306000FDF7B3FA02214DF21C50FDF7AEFA342100
:103070004DF21D50FDF7A9FA02214DF21E50FDF749
:10308000A4FA67214DF21F50FDF79FFA02214DF27D
:103090002050FDF79AFA84214DF22150FDF795FA60
:1030A00002214DF22250FDF790FAA4214DF2235057
:1030B000FDF78BFA02214DF22450FDF786FAB72175
:1030C0004DF22550FDF781FA02214DF22650FDF711
:1030D0007CFACF214DF22750FDF777FA02214DF20D
:1030E0002850FDF772FADE214DF22950FDF76DFAF6
:1030F00002214DF22A50FDF768FAF2214DF22B50D1
:10310000FDF763FA02214DF22C50FDF75EFAFE2125
:103110004DF22D50FDF759FA03214DF22E50FDF7D7
:1031200054FA10214DF22F50FDF74FFA03214DF2C2
:103130003050FDF74AFA33214DF23150FDF745FA90
:1031400003214DF23250FDF740FA6D214DF233501C
:10315000FDF73BFA00214FF45640FDF736FA3321D4
:103160004DF20160FDF731FA00214DF20260FDF7EA
:103170002CFA34214DF20360FDF727FA00214DF2BD
:103180000460FDF722FA3A214DF20560FDF71DFAC1
:1031900000214DF20660FDF718FA4A214DF2076052
:1031A000FDF713FA00214DF20860FDF70EFA5C21DD
:1031B0004DF20960FDF709FA00214DF20A60FDF7B2
:1031C00004FA81214DF20B60FDF7FFF900214DF269
:1031D0000C60FDF7FAF9A6214DF20D60FDF7F5F947
:1031E00000214DF20E60FDF7F0F9E5214DF20F6080
:1031F000FDF7EBF901214DF21060FDF7E6F913211F
:103200004DF21160FDF7E1F901214DF21260FDF779
:10321000DCF954214DF21360FDF7D7F901214DF28D
:103220001460FDF7D2F982214DF21560FDF7CDF95A
:1032300001214DF21660FDF7C8F9CA214DF2176061
:10324000FDF7C3F902214DF21860FDF7BEF9002128
:103250004DF21960FDF7B9F902214DF21A60FDF740
:10326000B4F901214DF21B60FDF7AFF902214DF2D7
:103270001C60FDF7AAF934214DF21D60FDF7A5F998
:1032800002214DF21E60FDF7A0F967214DF21F608B
:10329000FDF79BF902214DF22060FDF796F984219C
:1032A0004DF22160FDF791F902214DF22260FDF708
:1032B0008CF9A4214DF22360FDF787F902214DF22C
:1032C0002460FDF782F9B7214DF22560FDF77DF905
:1032D00002214DF22660FDF778F9CF214DF22760EB
:1032E000FDF773F902214DF22860FDF76EF9DE213A
:1032F0004DF22960FDF769F902214DF22A60FDF7D0
:1033000064F9F2214DF22B60FDF75FF902214DF2D5
:103310002C60FDF75AF9FE214DF22D60FDF755F9AD
:1033200003214DF22E60FDF750F910214DF22F6070
:10333000FDF74BF903214DF23060FDF746F93321DB
:103340004DF23160FDF741F903214DF23260FDF796
:103350003CF96D214DF23360FDF737F955214FF4FB
:103360007040FDF732F9AA214FF20100FDF72DF967
:1033700052214FF20200FDF728F908214FF2030015
:10338000FDF723F900214FF20400FDF71EF9CC21CF
:103390004FF43140FDF719F900214BF20110FDF710
:1033A00014F905214FF43640FDF70FF970214FF461
:1033B0003740FDF70AF970214BF20170FDF705F96E
:1033C00001214FF43840FDF700F903214BF60100CD
:1033D000FDF7FBF803214BF60200FDF7F6F8032199
:1033E0004BF60300FDF7F1F802214FF43C40FDF7E6
:1033F000ECF800214BF60140FDF7E7F800214BF611
:103400000240FDF7E2F8D0214FF44940FDF7DDF826
:1034100002214CF60110FDF7D8F850214CF60210AD
:10342000FDF7D3F850214CF60310FDF7CEF85021EC
:103430004CF60410FDF7C9F800214FF45450FDF785
:10344000C4F855214FF46850FDF7BFF84FF4885089
:10345000FDF7A0F8782002F04DFF4FF42450FDF75F
:1034600099F8BDE0FE48808841F663118842F8D1A2
:10347000E220FDF78FF81D20FDF795F80220FDF7FB
:1034800092F80420FDF78FF8642002F033FFE0206B
:10349000FDF780F80120FDF786F80A2002F072FFA0
:1034A000E020FDF777F80320FDF77DF80C2002F00F
:1034B00069FF0120FDF76EF80A2002F063FFE620A5
:1034C000FDF768F82F20FDF76EF8FF20FDF76BF889
:1034D000FF20FDF768F8B020FDF75CF82020FDF72D
:1034E00062F80020FDF75FF80320FDF75CF840F27A
:1034F0001F30FDF758F80120FDF755F840F2DF10B6
:10350000FDF751F80020FDF74EF8B420FDF742F822
:103510000420FDF748F840F21F40FDF744F8002072
:10352000FDF741F82E20FDF73EF80020FDF73BF8AF
:103530000020FDF738F80020FDF735F80020FDF7F2
:1035400032F8B620FDF726F80220FDF72CF84FF4EC
:103550000370FDF728F80020FDF725F81720FDF788
:1035600022F81520FDF71FF80020FDF71CF80020B9
:10357000FDF719F8F020FDF70DF80320FDF713F81B
:103580002920FDF707F8D020FDF704F80020FDF70B
:103590000AF8BE20FCF7FEFF0520FDF704F8FE2028
:1035A000FDF701F80120FCF7FEFF0020FCF7FBFF10
:1035B0000020FCF7F8FF0020FCF7F5FFB820FCF72F
:1035C000E9FF0320FCF7EFFF0120FCF7ECFFBA2036
:1035D000FCF7E0FF0120FCF7E6FF6420FDF7B5FAF9
:1035E0009F48808849F24131884217D09C488088A2
:1035F00047F28971884211D09948808845F210318C
:1036000088420BD09648808845F21051884205D0F8
:103610009348808841F6631188421CD19148006824
:1036200020F00F004FF02041C1F81C010846D0F8EF
:103630001C0120F47060C1F81C010846D0F81C0180
:1036400040F00300C1F81C010846D0F81C0140F40A
:103650004070C1F81C010120FDF7A3FA0120824946
:1036600008604FF6FF70FDF7F1FB1CBD2DE9F04F30
:1036700005460E4617469846DDF824A04FF0000B8D
:10368000781B401C1FFA80FB344614E02146284674
:10369000FCF7CAFFFCF7ABFF4FF0000907E04FF063
:1036A000D840A0F880A009F101001FFA80F9D9459F
:1036B000F5DB601C84B24445E8DDBDE8F08F2DE900
:1036C000F84F07460D4690469946DDF828B0A8EB1E
:1036D0000700401C1FFA80FAA9EB0500401C80B2CD
:1036E0000090002414E0281981B23846FCF79CFFB2
:1036F000FCF77DFF002607E004FB0A603BF81000A2
:103700005A490880701C86B25645F5DB601C84B2AD
:1037100000988442E7DBBDE8F88F2DE9FF4F84B0C5
:1037200081468A460020039002900698A0EB090586
:103730000798A0EB0A06CDF80490CDF800A0002D64
:1037400001DD012705E00DB9002702E04FF0FF374A
:103750006D42002E02DD4FF0010806E016B94FF071
:10376000000802E04FF0FF387642B54201DD2C46FA
:1037700000E034464FF0000B21E0009A91B2019A2C
:1037800090B2FDF75DF90398284403900298304405
:1037900002900398A04205DD0398001B0390019856
:1037A000384401900298A04205DD0298001B029067
:1037B0000098404400900BF101001FFA80FB601C50
:1037C0008345DADD08B0BDE8F08FF0B504460D465C
:1037D00016461F462B46324629462046FFF79DFFD8
:1037E0003B46224629462046FFF797FF3B46324696
:1037F00039462046FFF791FF3B4632462946304680
:10380000FFF78BFFF0BD2DE9F04306460F469046CB
:10381000002445460320A0EB480945E07A1B91B2FD
:10382000321990B2FDF70CF93A1B91B2721990B2AD
:10383000FDF706F93A1991B2721990B2FDF700F945
:103840007A1991B2321990B2FDF7FAF87A1991B259
:10385000321B90B2FDF7F4F83A1991B2721B07E0EF
:10386000200300201C0100A0BC8240428000006CAC
:1038700090B2FDF7E5F87A1B91B2321B90B2FDF7DA
:10388000DFF83A1B91B2721B90B2FDF7D9F8641CB5
:10389000B9F1000F03DAA000801D814404E0601B31
:1038A00080000A3081446D1EAC42B7DDBDE8F08374
:1038B0002DE9F84F80460E4617461C46B346204673
:1038C000E31704EB5373DB1021464FEAE47C04EB6F
:1038D0005C7C4FEAEC0CA4EBCC0CBCF1000F02D0EA
:1038E0004FF0010C01E04FF0000C6344224604EB62
:1038F000D27C4FEA6C0C03FB0CF3DBB20093A7F114
:103900002000C7B2002556E00C2C07D107EB47007A
:103910009F4901EB800010F8059013E0102C05D1B1
:103920009C4800EB071010F805900BE0182C07D10D
:1039300007EBC700984901EB800010F8059001E003
:10394000BDE8F88F4FF0000A2FE009F0800030B199
:103950009248028831464046FDF780F807E00A9811
:1039600028B98F48028831464046FDF777F84FEA7C
:1039700049604FEA1069701C86B28A484088B0429C
:1039800000DCDDE7A6EB0B00A0420AD15E4608F1A1
:1039900001001FFA80F883480088404500DCCFE72B
:1039A00006E00AF1010000F0FF0ABAF1080FCCDBD3
:1039B00000BF681CC5B200988542A5DB00BFBFE709
:1039C00010B50246012000E050430B1EA1F1010496
:1039D000E1B2F9D110BD2DE9FF4F81B00746914604
:1039E0001E460E9D4FF0000A002439E0301B401E99
:1039F000C1B20A20FFF7E4FFB9FBF0F00A21B0FBE7
:103A0000F1F201FB1208BAF1000F16D1701EA042AC
:103A100013DDB8F1000F0ED10020AB4605EBDB71D2
:103A2000491001FB0471009088B22B4620220299B4
:103A3000FFF73EFF12E04FF0010A0020AB4605EB16
:103A4000DB71491001FB0471009088B208F130016C
:103A5000CAB22B460299FFF72BFF00BF601CC4B20D
:103A6000B442C3DB05B0BDE8F08F2DE9FF4F82B053
:103A7000064692461F46DDE90F48002001900025CA
:103A80004DE0781B401EC1B20A20FFF799FFBAFB38
:103A9000F0F00A21B0FBF1F201FB1209019850BBD2
:103AA000781EA84227DDB9F1000F22D108F080006E
:103AB00078B108F00100A34604EBDB71491001FB6B
:103AC0000561009088B2234630220399FFF7F0FE8B
:103AD0000EE008F00100A34604EBDB71491001FB86
:103AE0000561009088B2234620220399FFF7E0FE8B
:103AF00013E00120019008F00100A34604EBDB7104
:103B0000491001FB0561009088B209F13001CAB289
:103B100023460399FFF7CCFE00BF681CC5B2BD4227
:103B2000AFDB06B0BDE8F08F2DE9F84704460D463F
:103B300090469946DDE9096704F0FF0A08EB0400A6
:103B40001FFA80F809EB05001FFA80F916E04445DA
:103B500002DB5446A81985B24D4500DB14E0002075
:103B600000903A78334629462046FFF7A1FE3046BA
:103B700006EBD07104EB61018CB27F1C38787E2893
:103B800002DC38782028E2DA00BFBDE8F8870000C0
:103B90005A2E0308CE320308BE3803081400002052
:103BA00016000020200300201CB50121112003F085
:103BB0000BFC1C20009000208DF8040003208DF8E1
:103BC000050001208DF807006946354802F07AFEAD
:103BD0000120009002208DF807006946314802F06C
:103BE00071FE1CBD10B5044614B101202E490870A9
:103BF0002D480078002837D01021294802F0C4FE53
:103C000078B10821264802F0BFFE50B104212448B3
:103C100002F0BAFE28B10121224802F0B5FE0128C7
:103C200022D10A2002F0AEFB00201F4908701021AB
:103C30001B4802F0A9FE08B9012010BD0821184850
:103C400002F0A2FE08B90220F7E70421144802F0AE
:103C50009BFE08B90320F0E70121124802F094FE10
:103C600001281BD10420E8E710210D4802F08CFE4A
:103C7000012813D108210A4802F086FE01280DD13F
:103C80000421074802F080FE012807D101210548E0
:103C900002F07AFE10B90120034908700020CCE739
:103CA0000010024000000240180000201CB5012155
:103CB000022003F089FB4FF44070009001208DF842
:103CC000040000208DF8060003208DF80500012077
:103CD0008DF807006946894802F0F4FD0120884903
:103CE00008608849C1F8A4021CBD10B5834800686B
:103CF00020F44020814908600846006840F4802094
:103D0000086001207E49091D08607E49C1F8A002B3
:103D1000042002F0EFFA00207949091D0860042010
:103D200002F0E8FA00207749C1F8A00210BD10B5F2
:103D30007248006820F44020704908600846006816
:103D400040F48020086000206D4908606D49C1F88A
:103D5000A402042002F0CEFA0120694908606949F2
:103D6000C1F8A402042002F0C5FA10BD10B5002469
:103D70006248006820F440206049086008460068F6
:103D8000086001205E49091D086002F0B3FA0120B5
:103D90005C49C1F8A00202F0ADFA07E0601CC4B2B1
:103DA000FA2C03DDFFF7C3FF012010BD54487C3817
:103DB00000680028F2D15249086000BFF5E710B54D
:103DC00000204F4908604D48006820F440204B49CE
:103DD00008600846006840F48020086000204949D7
:103DE000C1F8A402022002F085FA012044490860CB
:103DF000022002F07FFA00204249C1F8A00210BD63
:103E000010B500203E4908603C48006820F440207E
:103E10003A4908600846006840F4802008600120A4
:103E20003849C1F8A402022002F064FA01203449A2
:103E30000860022002F05EFA00203249C1F8A002B8
:103E400010BD70B504462D48006820F440202B4971
:103E500008600846006840F4802008600020284977
:103E60000860002517E0E0092549091D0860600683
:103E7000040E022002F03EFA01202249C1F8A002FD
:103E8000022002F037FA00201D490860022002F0EB
:103E900031FA681CC5B2082DE5DB70BD70B505466A
:103EA00000241648006820F44020144908600846A1
:103EB00000680860002616E0002011490860022012
:103EC00002F018FA01200F49C1F8A0026006040EA2
:103ED0000B487C38006808B1601CC4B2012002F0B5
:103EE00009FA701CC6B2082EE6DB15B9FFF788FF89
:103EF00001E0FFF764FF204670BD000000040240AF
:103F0000A08240420080404210B5FFF7CFFE10BDB6
:103F100070B504460026FFF7E8FE2546E11704EBDE
:103F200011610912A02202EB4101C8B2FFF789FF1B
:103F3000FFF71CFFE11704EB11610912A4EB01214B
:103F4000C8B2FFF77EFFFFF711FFFFF7CEFEA120FB
:103F5000FFF777FFFFF70AFF0020FFF79FFF0646F6
:103F6000FFF7E5FE304670BD70B504460E46FFF71C
:103F7000BCFE2546E11704EB11610912A02202EBF9
:103F80004101C8B2FFF75DFFFFF7F0FEE11704EB58
:103F900011610912A4EB0121C8B2FFF752FFFFF72C
:103FA000E5FE3046FFF74DFFFFF7E0FEFFF7BFFEEF
:103FB0000A2002F0E7F970BD2DE9F04105460E46F2
:103FC0001746002409E0E20026FA02F2D1B22A19CB
:103FD00090B2FFF7C9FF601CC4B2BC42F3DBBDE87E
:103FE000F0812DE9F04107460C460026002509E046
:103FF00036023919491B491E88B2FFF789FF06446A
:10400000681CC5B2A542F3DB3046BDE8F08110B5AF
:10401000FF20FFF77DFF0446552C01D1002010BD85
:104020005521FF20FFF7A0FFFF20FFF771FF044697
:10403000552C01D10020F2E70120F0E770B50646CB
:104040000C46154608E03046721C96B2FFF760FF3A
:1040500004F8010B681E85B2002DF4D170BD70B557
:1040600005460C46164606E021782846FFF77CFFF9
:10407000681C85B2641C301EA6F101018EB2F3D11A
:1040800070BD000010B5022002F034F910BD1CB55F
:104090000121222003F098F9012000908DF80400FE
:1040A00000208DF8060001208DF80700694684483D
:1040B00002F008FC4FF40060009001208DF804002D
:1040C0006946804802F0FEFB1CBD10B57D480068C3
:1040D00020F440007B4908600846006840F48000F6
:1040E00008600120784908607849C1F880021E20E4
:1040F00002F000F9002074490860FFF7C3FF0020B8
:104100007249C1F8800210BD10B56E48006820F4F5
:1041100040006C4908600846006840F48000086070
:1041200001206B4908601E2002F0E4F80020694974
:10413000C1F8AC02FFF7A6FF01206349086010BD7B
:1041400010B500245F48006820F440005D49086015
:1041500008460068086001205B4908605B49C1F8B7
:104160008002FFF78FFF09E0601CC4B2FA2C03DD68
:10417000FFF7CAFF012010BDFFF784FF52488038C7
:1041800000680028F0D15249086000BFF3E710B57D
:1041900000204F4908604B48006820F4400049491E
:1041A00008600846006840F480000860FFF76AFF76
:1041B00000204849C1F8AC02FFF764FF01204449E0
:1041C0000860FFF75FFF00204049C1F8800210BD82
:1041D00010B500203E4908603A48006820F44000CD
:1041E000384908600846006840F480000860FFF71E
:1041F00049FF01203749C1F8AC02FFF743FF012016
:1042000033490860FFF73EFF00203049C1F88002C3
:1042100010BD70B504462B48006820F440002949C1
:1042200008600846006840F48000086000202849C3
:104230000860FFF727FF002511E0E0092249086028
:104240006006040E01202149C1F88002FFF71AFF21
:1042500000201F490860FFF715FF681CC5B2082D34
:10426000EBDB70BD70B5054600241648006820F4ED
:104270004000144908600846006808601E2002F0EB
:1042800039F8002612E0002011490860FFF7FAFE15
:1042900001200E49C1F880026006040E0A488038E9
:1042A000006808B1601CC4B2701CC6B2082EEADBFC
:1042B00015B9FFF78DFF01E0FFF769FF204670BDDC
:1042C0000004024000140240AC824242008040429E
:1042D00080824042008042422DE9F04104460E4671
:1042E00017464FF00008FFF7F0FE2820FFF791FF78
:1042F000FFF726FF2012FFF78CFFFFF721FFE0B248
:10430000FFF787FFFFF71CFF00250BE0705DFFF74D
:1043100080FFFFF715FF8046B8F1000F00D003E0E3
:10432000681CC5B2BD42F1DB00BFFFF7EDFE4046A1
:10433000BDE8F08138B50546002400208DF8000066
:104340008DF8015000BF09E09DF80000E149095DCA
:104350000844C0B28DF80000601CC4B2B82CF3D37E
:104360009DF80000C043401CC0B28DF80000B82288
:10437000D84948F24700FFF7AFFF0222694648F2EA
:10438000FF00FFF7A9FF002038BD2DE9F0410546E9
:104390000F461646FFF799FE2820FFF73AFFFFF772
:1043A000CFFE2812FFF735FFFFF7CAFEE8B2FFF78E
:1043B00030FFFFF7C5FEFFF788FE2920FFF729FF32
:1043C000FFF7BEFE00240BE0711EA14201D00121C7
:1043D00000E000210846FFF745FF3855601CC4B2D5
:1043E000B442F1DBFFF790FEBDE8F0811FB501217B
:1043F000062002F0E9FF0220009000208DF8040062
:104400008DF8060003208DF8050001208DF80700C7
:104410006946B14802F056FA4FF40050009001206E
:104420008DF804006946AD4802F04CFAFFF72FFE04
:104430000020AB4908600A2001F0A4FF0120A9492F
:10444000C1F8B4020A2001F09DFF02200090012073
:104450008DF8040000208DF8070069469E4802F0A0
:1044600031FA642001F08EFF042202A948F24010C4
:10447000FFF78BFF00208DF80C0002A99AA02DF009
:1044800027FC9CA102A82DF041FE48BB02208DF81C
:104490000800012202A948F24000FFF71DFF012297
:1044A00002A948F24700FFF770FF9DF80800602856
:1044B00007DA9DF8081091A02DF00AFC0120FFF703
:1044C00039FF0A2001F05EFF00208DF8080001226C
:1044D00002A948F24000FFF7FFFE002004B010BD23
:1044E0000120FBE771B583B00024002688480078DE
:1044F000401C87490870084600780A2190FBF1F2B9
:1045000001FB120018B1824800780A287EDA0122E5
:1045100003A948F24E10FFF738FF9DF80C0000F099
:10452000800068B19DF80C0000F00F00062807DA43
:1045300000200190012201A948F24E10FFF7CCFEA5
:104540009DF80C0000F00F0000285FD09DF80C00D3
:1045500000F00F000628D9DA9DF80C0000F00F01DA
:10456000FF208840C0B201906A4890F820509DF822
:104570000400C043C0B240F0C000664981F820008A
:10458000084681898182C18AC183002446E061484E
:1045900090F820000121A140084020B35E4931F885
:1045A0001400042202A9FFF7F0FE5A4890F83000E8
:1045B00000F00100C0B19DF808009DF8091000EB63
:1045C000012081B25348163020F814109DF80A00DB
:1045D0009DF80B1000EB0120C0F5487081B24D48EA
:1045E0000C3020F8141017E09DF808009DF8091011
:1045F00000EB012081B247480C3020F814109DF8E0
:104600000A009DF80B1000EB012000E036E081B2BB
:104610004048163020F81410601CC4B2052CB6DBDC
:1046200001263C4880893D490988884205DC394893
:10463000C08A3A49498888421DDD9DF80C0000F087
:104640000F0001280ADD3348C089324988810846B5
:10465000008BC88200202E4908700FE02D48808A08
:104660002C4988810846C08BC88280200390084668
:1046700080F8205002E00020254908709DF80C00C9
:1046800000F08F0080281AD1224890F8200000F016
:10469000800040B11F4890F8200020F080001D49A4
:1046A00081F820000BE04FF6FF701A498881C8821C
:1046B000084690F8200000F0E00081F8200014483F
:1046C0000078F02802DD0A2011490870304604B055
:1046D00070BD00001A4603080004024000080240B2
:1046E000B4024142000041424354502049443A251B
:1046F000730D0A00393134370000000044656661EB
:10470000756C74205665723A25640D0A000000002D
:10471000190000201C000020D246030820030020BE
:104720002DE9F04104460E4617464FF00008FFF70A
:10473000CCFCB220FFF76DFDFFF702FD2012FFF762
:1047400068FDFFF7FDFCE0B2FFF763FDFFF7F8FC43
:1047500000250BE0705DFFF75CFDFFF7F1FC804684
:10476000B8F1000F00D003E0681CC5B2BD42F1DB18
:1047700000BFFFF7C9FC4046BDE8F0812DE9F041DC
:1047800005460F461646FFF7A0FCB220FFF741FD95
:10479000FFF7D6FC2812FFF73CFDFFF7D1FCE8B28B
:1047A000FFF737FDFFF7CCFCFFF78FFCB320FFF7D7
:1047B00030FDFFF7C5FC00240BE0711EA14201D0C3
:1047C000012100E000210846FFF74CFD3855601C30
:1047D000C4B2B442F1DBFFF797FCBDE8F08138B515
:1047E0000446002000900CB1802000900122694610
:1047F0004FF45060FFF794FF38BD0EB500200290D3
:104800000121062002F0E0FD0220009000208DF83A
:1048100004008DF8060003208DF8050001208DF8B6
:1048200007006946904802F04DF84FF400500090A0
:1048300001208DF8040069468C4802F043F8FFF728
:1048400026FC00208A490860642001F09BFD0120BD
:104850008849C1F8B402642001F094FD0120FFF7FB
:10486000BEFF012202A94FF45060FFF787FF9DF8B9
:10487000081081A02DF02CFA9DF80800802801D1A5
:1048800000200EBD0120FCE731B52DED068B82B076
:10489000002400257B480078401C7A4908700846AF
:1048A00000780A2190FBF1F201FB120018B1754863
:1048B00000780A287EDA012208A90020FFF75EFFAF
:1048C0009DF8200000F01F00002873D09DF8200004
:1048D00000F01F0040F0C0006B4981F82000002468
:1048E00086E0694890F820000121A1400840002896
:1048F0007CD0664931F81400042201A9FFF73EFF7D
:10490000614890F8300000F00100D0B39DF8071026
:104910009DF8062001EB02202DF0C7FE41EC190B9B
:104920009FED5B0B53EC102B2DF026FF41EC180B89
:104930002DF08EFE81B25448163020F814109DF8E8
:1049400005109DF8042001EB02202DF0AEFE41EC95
:104950001A0B9FED510B53EC102B2DF00DFF41EC7A
:10496000190B9FED4F0B53EC102B2EF039F841EC47
:10497000180B2DF06DFE81B243480C3020F8141056
:1049800034E0FFE79DF807109DF8062001EB0220B8
:104990002DF08BFE41EC190B9FED3D0B53EC102BD2
:1049A0002DF0EAFE41EC180B2DF052FE81B2364894
:1049B0000C3000E02BE020F814109DF805109DF855
:1049C000042001EB02202DF070FE41EC190B9FED4D
:1049D000320B53EC102B2DF0CFFE41EC180B2DF0C9
:1049E00037FE81B22848163020F81410601CC4B27B
:1049F000052CFFF676AF01252348808920B922488F
:104A0000C08A08B90020089000201E4908709DF84F
:104A1000200000F01F00D0B91B4890F8200000F0E3
:104A2000800040B1184890F8200020F0800016491E
:104A300081F820000BE04FF6FF7013498881C8828F
:104A4000084690F8200000F0E00081F820000D48B2
:104A50000078F02802DD0A200A490870284602B0D2
:104A6000BDEC068B38BD0000000402400008024087
:104A7000B4024142000041424354502049443A2587
:104A8000780D0A001A0000201C000020DC460308F4
:104A90007B14AE47E17AD43FD881734694F6D23F77
:104AA00000000000000089402DE9F04105460E4657
:104AB00017464FF00008FFF708FB7020FFF7A9FB2F
:104AC000FFF73EFBE8B2FFF7A4FBFFF739FB00243A
:104AD0000BE0305DFFF79DFBFFF732FB8046B8F13E
:104AE000000F00D003E0601CC4B2BC42F1DB00BF89
:104AF000FFF70AFB4046BDE8F0812DE9F04106468C
:104B00000F461546FFF7E1FA7020FFF782FBFFF72B
:104B100017FBF0B2FFF77DFBFFF712FBFFF7D5FAAB
:104B20007120FFF776FBFFF70BFB00240BE0691EFB
:104B3000A14201D0012100E000210846FFF792FBCD
:104B40003855601CC4B2AC42F1DBFFF7DDFABDE8BA
:104B5000F0810EB50121062002F036FC0220009003
:104B600000208DF804008DF8060003208DF8050064
:104B700001208DF8070069468C4801F0A3FE4FF430
:104B80000050009001208DF804006946884801F02B
:104B900099FEFFF77CFA002086490860142001F096
:104BA000F1FB01208449C1F8B402322001F0EAFB94
:104BB00000208DF80800012202A9FFF775FF0122ED
:104BC00002A9A420FFF770FF16208DF8080001222B
:104BD00002A98020FFF768FF0C208DF80800012251
:104BE00002A98820FFF760FF022202A9A120FFF797
:104BF00084FF9DF8080030280ED19DF80900032895
:104C00000AD19DF809009DF8082000EB02216BA055
:104C10002DF05EF800200EBD0120FCE771B581B0DB
:104C20000024002668480078401C67490870084640
:104C300000780A2190FBF1F201FB120018B16248E2
:104C400000780A2867DA012201A90220FFF755FF40
:104C50009DF8040000F00F0000287ED09DF80400AD
:104C600000F00F00062878DA9DF8040000F00F012C
:104C7000FF208840C5B2E843C0B240F0C0005349AD
:104C800081F8200000245AE0504890F820000121CB
:104C9000A1400840F0B34E4931F81400042269469F
:104CA000FFF72BFF494890F8300000F00100C0B139
:104CB0009DF801009DF8001001F00F0100EB0120AC
:104CC0004249163121F814009DF803009DF80210A6
:104CD00001F00F0100EB01213C480C3020F81410CA
:104CE0001DE09DF801009DF8001001F00F0100EBA0
:104CF0000120C0F5F07081B234480C3020F8141057
:104D00009DF803009DF8021001F00F0100EB012156
:104D10002E4801E011E020E0163020F814109DF834
:104D2000000000F0F000802807D00021274816304E
:104D300020F814100A3820F81410601CC4B2052C96
:104D4000A2DB01262148808920B92048C08A08B901
:104D50000020019000201C4908709DF8040000F01C
:104D60001F00D0B9194890F8200000F0800040B131
:104D7000164890F8200020F08000144981F82000A7
:104D80000BE04FF6FF7011498881C882084690F801
:104D9000200000F0E00081F820000B480078F028A7
:104DA00002DD0A200849087030467CBD000402403C
:104DB00000080240B40241420000414243545020E6
:104DC00049443A25780D0A001B0000201C000020F1
:104DD000E646030870B50446002500BF17E004F05E
:104DE000800018B10120FE49086002E00020FC4963
:104DF00008606006040E0020FA490860012001F0F6
:104E000079FA0120F849C1F88002681CC5B2082D62
:104E1000E5DB70BD70B50646002500240020F14991
:104E20000860F249C1F8AC02F14908603046FFF76A
:104E3000D1FF062001F05EFA0020EB49C1F88002A4
:104E4000012001F057FA0120E649086001F052FA0A
:104E50000020E549C1F8800200BF15E04FF6FF7061
:104E600000EA44040020DF490860012001F042FA12
:104E70000120DD49C1F88002DA487838006808B1BD
:104E8000601C84B2681CC5B2102DE7DB2411012020
:104E9000D7490860204670BD2DE9FE4380460027B3
:104EA000002406E04046FFF7B5FF2DF81400601C13
:104EB00084B2052CF6DB002416E0601C85B20FE0FE
:104EC0003DF814003DF81510884207DD3DF81460E8
:104ED0003DF815002DF814002DF81560681C85B2FA
:104EE000052DEDDB601C84B2042CE6DB00270124D9
:104EF00005E03DF81400384487B2601C84B2042CED
:104F0000F7DB032097FBF0F086B23046BDE8FE8366
:104F10002DE9F04104460D46B6480078FFF7BCFF86
:104F20000646B5480078FFF7B7FF074626802F8072
:104F30000120BDE8F0817FB504460D4602A903A813
:104F4000FFF7E6FF064616B9002004B070BD6946BB
:104F500001A8FFF7DDFF06460EB90020F5E7BDF812
:104F60000400BDF80C10884206DCBDF80C10BDF83A
:104F70000400323081420CDBBDF80C00BDF8041097
:104F8000884236DCBDF80410BDF80C003230814296
:104F90002FDABDF80000BDF80810884206DCBDF825
:104FA0000810BDF80000323081420CDBBDF808006B
:104FB000BDF8001088421CDCBDF80010BDF80800E8
:104FC0003230814215DABDF80C10BDF80420881883
:104FD00000EBD071C1F34F012180BDF80810BDF87E
:104FE0000020881800EBD071C1F34F012980012007
:104FF000ABE70020A9E770B504460D4616467F488A
:10500000068004F10D018AB2193988B22B4629466F
:10501000FEF783FB05F10D0083B2193881B22246F9
:105020002046FEF77AFB6A1C91B2621C90B2FBF735
:1050300007FD6A1C91B2621E90B2FBF701FD6A1E69
:1050400091B2621C90B2FBF7FBFC6A1E91B2621E29
:1050500090B2FBF7F5FC062229462046FEF7D3FB6B
:1050600070BD70B504460D46164664480680294654
:105070002046FBF7E5FC611C88B22946FBF7E0FC03
:10508000681C81B22046FBF7DBFC6A1C91B2621CF3
:1050900090B2FBF7D5FC70BD10B5044651487C3882
:1050A000006800284ED12CB15549A1F10A00FFF744
:1050B00042FF35E05249A1F10A00FFF73CFF78B307
:1050C0004F481638B0F92C0000EE100AB8EEC00AAE
:1050D0004B48163890ED091A808900EE900AF8EED8
:1050E000600A01EE200ABCEEC00A10EE100A444924
:1050F000163988810846B0F92E0000EE100AB8EE85
:10510000C00A084690ED0A1AC08A00EE900AF8EE2E
:10511000600A01EE200ABCEEC00A10EE100AC88236
:105120003748163890F8200000F0800038BBC020C7
:105130003349163981F82000084681898182C18A65
:10514000C1831CE02E48163890F8200000F0800043
:1051500050B12B48163890F8200020F080002849E4
:10516000163981F820000AE000212548163881828E
:10517000C1834FF6FF70224916398881C8822048C2
:10518000163890F8200000F0800010BD10B51C48C3
:10519000163890ED090ADFED1B0A20EE200ABDEE5D
:1051A000C00A10EE104A042221462820FEF704FF10
:1051B0001348163890ED0A0ADFED120A20EE200A95
:1051C000BDEEC00A10EE104A042221462C20FEF744
:1051D000F3FE0B481638B0F92C100222302013E0F1
:1051E000AC82424280824042008040420080424283
:1051F000B402414250000020510000201400002061
:105200003200002020BCBE4CFEF7D6FEFE48B0F9AE
:105210002E1002223220FEF7CFFEFB4890F830100D
:105220003420FEF7A1FE0A2421463520FEF79CFE1D
:1052300010BD10B53520FEF76BFE04460A2C46D192
:1052400004212820FEF7CDFE044600EE104AB8EEF9
:10525000C00A5FED140A80EE201AEB4880ED091AAF
:1052600004212C20FEF7BDFE044600EE104AB8EEE5
:10527000C00A5FED1C0A80EE201AE34880ED0A1A8E
:1052800002213020FEF7ADFE00B2DF498885022101
:105290003220FEF7A6FE00B2DB49C8853420FEF7B7
:1052A00037FED94981F83000084690F8300030B117
:1052B0009020D6490870D020D549087005E0D0204C
:1052C000D24908709020D2490870012010BD0020FA
:1052D000FCE72DE9FC5F04460D4617461E46DDE956
:1052E0000EABDDE90C894FF47840CA490880CAA0AA
:1052F0001021CDE90010C94843880288A021282048
:10530000FEF712FCC6A01021CDE90010C348438867
:105310000288A0217820FEF707FCC2A01021CDE969
:105320000010BE4843880288B4212820FEF7FCFB09
:10533000BDA01021CDE90010B84843880288B421EF
:105340007820FEF7F1FBB9A01021CDE90010B34899
:1053500043880288C8212820FEF7E6FBB4A010216C
:10536000CDE90010AD4843880288C8217820FEF7B7
:10537000DBFBB0A01021CDE90010A84843880288CB
:10538000DC212820FEF7D0FBABA01021CDE90010D6
:10539000A24843880288DC217820FEF7C5FBA7A03D
:1053A0001021CDE900109D4843880288F021282073
:1053B000FEF7BAFB102004232246A02100904020D3
:1053C000FEF709FB102004232A46A021009090201C
:1053D000FEF701FB102004233A46B4210090402040
:1053E000FEF7F9FA102004233246B42100909020F1
:1053F000FEF7F1FA102004234246C8210090402015
:10540000FEF7E9FA102004234A46C82100909020B4
:10541000FEF7E1FA102004235246DC2100904020E0
:10542000FEF7D9FA102004235A46DC210090902080
:10543000FEF7D1FA102003230090F0216020109A8B
:10544000FEF7C9FABDE8FC9F00B597B000201290A6
:105450000B9012901F216F4801804FF6FF71794821
:1054600001800846FBF7F2FC4FF47841694801805F
:105470004FF6FF70FBF7EAFC00206649088072488F
:10548000006810216423A022CDE9001028210846DD
:10549000FEF74AFB4FF4784214210846FFF7ABFDB4
:1054A0000020594981F820009FED680A084680EDE8
:1054B000090A53E2544840680A9001200A99884733
:1054C000514890F8200000F0C00040286FD1002023
:1054D0000B904D4890F8200020F040004A4981F898
:1054E00020000846818913AA129822F82010464805
:1054F000C18A129802EB800041801298401CC0B211
:1055000012901298012806D0022815D0032829D01D
:10551000042810D141E04FF6FF7214210846FFF72E
:105520006AFD3E480088143880B24FF47842142156
:105530000A90FFF760FDEBE338480088143880B22A
:105540004FF6FF7214210A90FFF755FD334840884B
:10555000143880B24FF4784201460A901420FFF7C5
:105560004AFDD5E32D484088143880B24FF6FF72CB
:1055700001460A901420FFF73EFD28484088143861
:1055800080B20A9025480088143880B24FF47842DF
:1055900009900A99FFF72FFDBAE3BDF84C10BDF84A
:1055A0005000081A0A90002802DB0A9802E0B0E3D3
:1055B0000A9840420F90BDF84E1013A8C088081AF0
:1055C0000A90002801DB0A9801E00A9840420E90F8
:1055D0000F9840430F900E9840430E90DDE90E1057
:1055E000084405902DF078F8CDE906019DED060BF5
:1055F0002CF0DAFE8DED080B9DED080B51EC100B35
:105600002DF026F880B223E01C000020500000207E
:10561000510000201400002078313A0020030020BF
:1056200079313A0078323A0079323A0078333A00E8
:1056300079333A0078343A0079343A00666163206D
:1056400069733A0016000020F046030800000000CD
:105650001190BDF85400BDF85810401A0A90002867
:1056600001DB0A9801E00A9840420F9013A8418993
:10567000C089081A0A90002801DB0A9801E00A98FC
:1056800040420E900F9840430F900E9840430E906A
:10569000DDE90E10084405902DF01EF8CDE9060155
:1056A0009DED060B2CF080FE8DED080B9DED080B9B
:1056B00051EC100B2CF0CCFF80B210909DED110A34
:1056C000F8EE400A9DED100AB8EE401A80EE810A0D
:1056D0008DED0A0A0A982DF045FBCDE90C019FEDEE
:1056E000FE0B53EC102B9DED0C0B51EC100B2DF021
:1056F00007F80ED39FEDFA0B53EC102B9DED0C0B1E
:1057000051EC100B2DF036F903D3119808B1109815
:10571000F0BB00201290F4484088143880B20A9000
:10572000F1480088143880B24FF6FF7209900A9948
:10573000FFF761FC4FF4784214210846FFF75BFC49
:105740009FEDEA0B53EC102B9DED0C0B51EC100B65
:105750002DF012F8CDE908019DED080B51EC100B6E
:105760002CF076FF80B213A90A90C989BDF85820A1
:1057700013AB5B89CDE90132CDE90310BDF85400CC
:10578000009013A8C0880990BDF85000089000E070
:105790000AE0BDF84E000790BDF84C00069007A93E
:1057A0000EC9FFF796FDC3E2BDF84C10BDF85400DA
:1057B000081A0A90002801DB0A9801E00A98404282
:1057C0000F90BDF84E1013A84089081A0A900028BF
:1057D00001DB0A9801E00A9840420E900F9840437E
:1057E0000F900E9840430E90DDE90E10084405908E
:1057F0002CF072FFCDE906019DED060B2CF0D4FDD7
:105800008DED080B9DED080B51EC100B2CF020FFDB
:1058100080B21190BDF85010BDF85800081A0A90D7
:10582000002801DB0A9801E00A9840420F9013A873
:10583000C188C089081A0A90002801DB0A9801E093
:105840000A9840420E900F9840430F900E984043A4
:105850000E90DDE90E10084405902CF03DFFCDE9D7
:1058600006019DED060B2CF09FFD8DED080B9DEDC7
:10587000080B51EC100B2CF0EBFE80B210909DED5C
:10588000110AF8EE400A9DED100AB8EE401A80EEBB
:10589000810A8DED0A0A0A982DF064FACDE90C010F
:1058A0009FED8D0B53EC102B9DED0C0B51EC100B61
:1058B0002CF026FF0AD39FED8A0B53EC102B9DEDA5
:1058C0000C0B51EC100B2DF055F848D20020129023
:1058D00085484088143880B20A908348008814387C
:1058E00080B24FF6FF7209900A99FFF784FB4FF4DC
:1058F000784214210846FFF77EFB9FED7C0B53ECAA
:10590000102B9DED0C0B51EC100B2CF035FFCDE95D
:1059100008019DED080B51EC100B2CF099FE80B2A4
:1059200013A90A90C989BDF8582013AB5B89CDE94A
:105930000132CDE90310BDF85400009013A8C088CF
:105940000990BDF850000890BDF84E000790BDF8D2
:105950004C00069007A90EC9FFF7BBFCE8E1BDF8B3
:105960005000BDF85410401A0A90002801DB0A9834
:1059700001E00A9840420F9013A8C1884089081A94
:105980000A90002801DB0A9801E00A9840420E9034
:105990000F9840430F900E9840430E90DDE90E1093
:1059A000084405902CF098FECDE906019DED060B0C
:1059B0002CF0FAFC8DED080B9DED080B51EC100B53
:1059C0002CF046FE80B21190BDF84C00BDF8581086
:1059D000401A0A90002801DB0A9801E00A98404228
:1059E0000F90BDF84E1013A8C089081A0A9000281D
:1059F00001DB0A9801E00A9840420E900F9840435C
:105A00000F900E9840430E90DDE90E10084405906B
:105A10002CF062FECDE906019DED060B2CF0C4FCD6
:105A20008DED080B9DED080B51EC100B2CF010FECA
:105A300080B210909DED110AF8EE400A9DED100A1B
:105A4000B8EE401A80EE810A8DED0A0A0A982DF010
:105A500089F9CDE90C019FED200B53EC102B9DED46
:105A60000C0B51EC100B2CF04BFE0AD39FED1C0BD2
:105A700053EC102B9DED0C0B51EC100B2CF07AFF1E
:105A800058D20020129018484088143880B20A90EA
:105A900015480088143880B24FF6FF7209900A99B1
:105AA000FFF7A9FA4FF4784214210846FFF7A3FA4A
:105AB0009FED0E0B53EC102B9DED0C0B51EC100BCE
:105AC0002CF05AFECDE908019DED080B51EC100BAE
:105AD0002CF0BEFD80B20DE0666666666666EE3F3F
